:020000040800F2
:1000000078060020290200083102000833020008A7
:10001000350200083702000839020008000000001D
:100020000000000000000000000000003B0200088B
:100030003D020008000000003F02000841020008E5
:10004000430200084302000843020008430200087C
:100050004302000843020008E502000843020008CA
:10006000430200084302000843020008430200085C
:10007000430200084302000843020008430200084C
:10008000430200084302000843020008430200083C
:10009000430200084302000843020008430200082C
:1000A000430200084302000843020008430200081C
:1000B0006D070008430200084302000843020008DD
:1000C00043020008430200084302000843020008FC
:1000D00043020008430200084302000843020008EC
:1000E00043020008430200084302000843020008DC
:1000F00043020008430200084302000843020008CC
:1001000043020008430200084302000843020008BB
:1001100043020008430200084302000843020008AB
:10012000430200084302000843020008430200089B
:10013000430200084302000843020008430200088B
:10014000430200084302000843020008430200087B
:10015000430200084302000843020008430200086B
:10016000430200084302000843020008430200085B
:10017000430200084302000843020008430200084B
:10018000430200084302000800F002F800F03CF8C7
:100190000AA090E8000C82448344AAF10107DA45E2
:1001A00001D100F031F8AFF2090EBAE80F0013F0F8
:1001B000010F18BFFB1A43F0010318473009000074
:1001C00050090000103A24BF78C878C1FAD8520705
:1001D00024BF30C830C144BF04680C6070470000C1
:1001E0000023002400250026103A28BF78C1FBD840
:1001F000520728BF30C148BF0B6070471FB500F0E1
:100200006FFC1FBD10B510BD00F031F81146FFF7AF
:10021000F5FF00F0D7FB00F04FF803B4FFF7F2FF53
:1002200003BC00F057F80000094880470948004720
:10023000FEE7FEE7FEE7FEE7FEE7FEE7FEE7FEE796
:10024000FEE7FEE704480549054A064B70470000F3
:1002500005070008890100087800002078060020C2
:10026000780200207802002070477047704775467A
:1002700000F02CF8AE4605006946534620F0070012
:10028000854618B020B5FFF7DDFFBDE820404FF0F0
:1002900000064FF000074FF000084FF0000B21F070
:1002A0000701AC46ACE8C009ACE8C009ACE8C0093D
:1002B000ACE8C0098D46704710B50446AFF3008026
:1002C0002046BDE81040FFF7A8BF00000048704777
:1002D0001400002001491820ABBEFEE726000200F2
:1002E0007047000010B5012000F026F8B0B10C48AE
:1002F00000680F2803DB0C200949086004E0084867
:100300000068401C0649086006480068012802D1C0
:10031000002005490860012000F008F810BD000029
:1003200000000020100000200C000020014908609F
:1003300070470000143C014001460020034A126847
:100340000A400AB1012000E000207047143C01403F
:10035000002123498279002A3AD00A4612680368AC
:100360009A430B461A600A1D126803689A430B1DD4
:100370001A60027911440A6803681A430A60184A2D
:100380000832126803689A43154B08331A601A1D25
:10039000126803689A43124B0C331A604279102A90
:1003A0000ED11A1F126803681A430D4B08331A60E6
:1003B0001A1D126803681A43094B0C331A600DE0CA
:1003C0000749427911440A6803681A430A6005E044
:1003D000027911440A6803689A430A607047000072
:1003E000003C014008B506208DF8000000208DF883
:1003F000010001208DF802008DF80300684600F02E
:100400007FF808BDF0B50A4600210023002400BF94
:100410003DE0012505FA01F3156805EA03049C4255
:1004200034D105684F000326BE40B54305601579F9
:100430004E00B5400668354305601579012D02D0A0
:100440001579022D16D185684F000326BE40B543AD
:10045000856055794E00B5408668354385604568AE
:1004600001268E40B5434560456896798E40B6B208
:1004700035434560C5684F000326BE40B543C5609F
:10048000D5794E00B540C6683543C560491C102972
:10049000BFD3F0BD41837047018370471CB5012174
:1004A000084600F069F800208DF804008DF8060079
:1004B0000120009002208DF8070003208DF8050030
:1004C00069460248FFF79EFF1CBD00000000024085
:1004D0001CB50121880300F06FF80021084600F0E8
:1004E0007BF8012000908DF8060000208DF80400B4
:1004F00008208DF805006846FFF72AFF1CBD0000A4
:1005000070B5002100230F22C4781CB3174C246857
:1005100004F4E064C4F5E064C4F30721C1F1040409
:10052000E3B20A4144789C40E1B28478144021430C
:100530000C07210E0E4C05786155047804F01F0558
:100540000124AC4005786D11AD0005F1E025C5F83A
:10055000004109E0047804F01F050124AC40054D7A
:100560000678761145F8264070BD00000CED00E0DD
:1005700000E400E080E100E029B1064A126802438D
:10058000044B1A6004E0034A12688243014B1A606C
:10059000704700003038024029B1064A1268024311
:1005A000044B1A6004E0034A12688243014B1A604C
:1005B000704700004038024029B1064A12680243E1
:1005C000044B1A6004E0034A12688243014B1A602C
:1005D000704700004438024030B500228B071C0FE2
:1005E0000F2303FA04F20B4B8C1053F8243093437F
:1005F000084C8D1044F8253023468C1053F82430D5
:100600008C07240F00FA04F42343024C8D1044F8A5
:10061000253030BD083801400CB500200190009015
:100620003448006840F480303249086000BF3148E7
:10063000006800F4003000900198401C0190009880
:1006400018B90198B0F5A04FF1D12A48006800F41C
:10065000003010B10120009001E0002000900098CF
:10066000012846D123484030006840F0805021499D
:10067000403108602048006840F440401E4908604E
:100680001C48083000681B490831086008460068AB
:1006900040F4004008600846006840F4A05008603C
:1006A0001648091F0860081F006840F08070091F85
:1006B000086000BF0F48006800F000700028F9D003
:1006C00040F205700E4908600A480830006820F0C2
:1006D00003000849083108600846006840F002003D
:1006E000086000BF03480830006800F00C000828CC
:1006F000F8D10CBD0038024000700040085440079B
:10070000003C024010B51548006840F470001349E1
:1007100008601348006840F001001149086000209B
:100720000F49083108600E4800680E4908400C491E
:1007300008600D48091D0860081F006820F480202B
:10074000091F0860002006490C310860FFF764FFAC
:100750004FF0006001498039086010BD88ED00E06D
:1007600000380240FFFFF6FE1030002410B50121D2
:10077000880700F07EF800285FD00121880700F08C
:1007800069F82E480068401C2C490860084600683B
:100790000A280BDD2A480068002807DD2848006881
:1007A000401E274908600120244908602548006848
:1007B000012842D12448006800B32048006803287B
:1007C00027D1224800680C2805D14FF480512048D9
:1007D000FFF762FE31E01D4800680D2805D14FF497
:1007E00000511B48FFF758FE27E0184800680E2804
:1007F00005D14FF480411648FFF74EFE1DE0134827
:1008000000680F2819D14FF400411148FFF744FE4A
:1008100013E04FF480510E48FFF73CFE4FF40051B7
:100820000B48FFF737FE4FF480410948FFF732FECF
:100830004FF400410648FFF72DFE10BD08000020D0
:1008400004000020100000200C0000200000002008
:10085000000C0240CA430282704721B1028842F074
:100860000102028004E002884FF6FE731A40028003
:10087000704730B50246002000230024158A05EA9F
:100880000103958905EA010413B10CB1012000E0D0
:10089000002030BD1AB183890B43838102E0838934
:1008A0008B4383817047000000220288184B9842D6
:1008B0000ED0184B98420BD0B0F1804F08D0164B99
:1008C000984205D0154B984202D0154B984204D15E
:1008D0004FF68F731A404B881A43124B984207D039
:1008E000114B984204D04FF6FF431A400B891A432C
:1008F00002804B68C3620B880385054B984202D087
:10090000044B984201D18B7A03860123838270477E
:1009100000000140000401400004004000080040C5
:10092000000C0040001000400014004008B51C20DE
:100930008DF8000000208DF8010001208DF80200E4
:100940008DF803006846FFF7DBFD08BD1CB50121EB
:100950000820FFF711FE4FF47040009001208DF841
:10096000040000208DF806008DF8070003208DF8A4
:10097000050069460148FFF745FD1CBD000C02401B
:100980000EB501210846FFF707FE5320ADF8000021
:100990000B4801900020ADF80200ADF808008DF87A
:1009A0000A0069464FF08040FFF77EFF012188076B
:1009B000FFF753FF012211469007FFF76BFF0EBDB3
:1009C00040420F00FFF7C2FFFFF7DAFFFFF7AEFF6D
:1009D000FFF764FDFFF77CFDFFF704FD0C203A49AB
:1009E00008604FF480513948FFF756FD6BE03848F6
:1009F0000068D8BB344800680C280AD14FF4004185
:100A00003248FFF747FD4FF480513048FFF744FD6F
:100A100059E02D4800680D280AD14FF480512B4829
:100A2000FFF738FD4FF400512848FFF735FD4AE045
:100A3000254800680E280AD14FF400512348FFF7DB
:100A400029FD4FF480412148FFF726FD3BE01E4879
:100A500000680F2837D14FF480411C48FFF71AFD7A
:100A60004FF400411948FFF717FD2CE0FFE7184845
:100A70000068012827D11748006820BB01201649CB
:100A80000860114800680C2803D10520134908604C
:100A900016E00D4800680D2803D10A200F490860B0
:100AA0000EE0094800680E2803D10F200B490860AA
:100AB00006E0054800680F2802D1142007490860A5
:100AC00001200449086092E700000020000C024069
:100AD000100000200C00002008000020040000206E
:100AE0004FF04070E1EE100A704700000C0B000858
:100AF0000000002014000000C4010008200B0008C2
:100B00001400002064060000E00100080C00000052
:100B100000000000010000000000000001000000D3
:0400000508000229C4
:00000001FF
