:020000040800F2
:10000000800600202902000831020008330200089F
:10001000350200083702000839020008000000001D
:100020000000000000000000000000003B0200088B
:100030003D020008000000003F02000841020008E5
:10004000430200084302000843020008430200087C
:100050004302000843020008E502000843020008CA
:10006000430200084302000843020008430200085C
:10007000430200084302000843020008430200084C
:10008000430200084302000843020008430200083C
:10009000430200084302000843020008430200082C
:1000A000430200084302000843020008430200081C
:1000B00059070008430200084302000843020008F1
:1000C00043020008430200084302000843020008FC
:1000D00043020008430200084302000843020008EC
:1000E00043020008430200084302000843020008DC
:1000F00043020008430200084302000843020008CC
:1001000043020008430200084908000843020008AF
:1001100043020008430200084302000843020008AB
:10012000430200084302000843020008430200089B
:10013000430200084302000843020008430200088B
:10014000430200084302000843020008430200087B
:10015000430200084302000843020008430200086B
:10016000430200084302000843020008430200085B
:10017000430200084302000843020008430200084B
:10018000430200084302000800F002F800F03CF8C7
:100190000AA090E8000C82448344AAF10107DA45E2
:1001A00001D100F031F8AFF2090EBAE80F0013F0F8
:1001B000010F18BFFB1A43F001031847400A000063
:1001C000600A0000103A24BF78C878C1FAD85207F4
:1001D00024BF30C830C144BF04680C6070470000C1
:1001E0000023002400250026103A28BF78C1FBD840
:1001F000520728BF30C148BF0B6070471FB500F0E1
:10020000F7FC1FBD10B510BD00F031F81146FFF727
:10021000F5FF00F063FC00F04FF803B4FFF7F2FFC6
:1002200003BC00F057F80000094880470948004720
:10023000FEE7FEE7FEE7FEE7FEE7FEE7FEE7FEE796
:10024000FEE7FEE704480549054A064B70470000F3
:10025000F1060008890100088000002080060020C7
:10026000800200208002002070477047704775466A
:1002700000F02CF8AE4605006946534620F0070012
:10028000854618B020B5FFF7DDFFBDE820404FF0F0
:1002900000064FF000074FF000084FF0000B21F070
:1002A0000701AC46ACE8C009ACE8C009ACE8C0093D
:1002B000ACE8C0098D46704710B50446AFF3008026
:1002C0002046BDE81040FFF7A8BF00000048704777
:1002D0001C00002001491820ABBEFEE726000200EA
:1002E0007047000010B5012000F01CF858B1084814
:1002F0000068002802DC0A200649086004480068FB
:10030000401C03490860012000F006F810BD000001
:100310001400002018000020014908607047000008
:10032000143C014001460020034A12680A400AB109
:10033000012000E000207047143C014000212349C7
:100340008279002A3AD00A46126803689A430B461B
:100350001A600A1D126803689A430B1D1A6002791D
:1003600011440A6803681A430A60184A083212687E
:1003700003689A43154B08331A601A1D1268036804
:100380009A43124B0C331A604279102A0ED11A1F6D
:10039000126803681A430D4B08331A601A1D12685D
:1003A00003681A43094B0C331A600DE00749427980
:1003B00011440A6803681A430A6005E0027911448F
:1003C0000A6803689A430A6070470000003C0140D5
:1003D00008B506208DF8000000208DF801000120EE
:1003E0008DF802008DF80300684600F07FF808BD24
:1003F000F0B50A4600210023002400BF3DE001259E
:1004000005FA01F3156805EA03049C4234D1056836
:100410004F000326BE40B543056015794E00B54038
:100420000668354305601579012D02D01579022D36
:1004300016D185684F000326BE40B54385605579C7
:100440004E00B540866835438560456801268E407C
:10045000B5434560456896798E40B6B235434560F0
:10046000C5684F000326BE40B543C560D5794E0030
:10047000B540C6683543C560491C1029BFD3F0BDDF
:1004800041837047018370471CB50121084600F085
:1004900069F800208DF804008DF806000120009016
:1004A00002208DF8070003208DF8050069460248F8
:1004B000FFF79EFF1CBD0000000002401CB501219B
:1004C000880300F06FF80021084600F07BF8012057
:1004D00000908DF8060000208DF8040008208DF8AB
:1004E00005006846FFF72AFF1CBD000070B500211B
:1004F00000230F22C4781CB3174C246804F4E06472
:10050000C4F5E064C4F30721C1F10404E3B20A4175
:1005100044789C40E1B28478144021430C07210EBA
:100520000E4C05786155047804F01F050124AC4099
:1005300005786D11AD0005F1E025C5F8004109E031
:10054000047804F01F050124AC40054D06787611AF
:1005500045F8264070BD00000CED00E000E400E02E
:1005600080E100E029B1064A12680243044B1A6098
:1005700004E0034A12688243014B1A60704700008E
:100580003038024029B1064A12680243044B1A600F
:1005900004E0034A12688243014B1A60704700006E
:1005A0004038024029B1064A12680243044B1A60DF
:1005B00004E0034A12688243014B1A60704700004E
:1005C0004438024030B500228B071C0F0F2303FA7A
:1005D00004F20B4B8C1053F824309343084C8D10CD
:1005E00044F8253023468C1053F824308C07240F10
:1005F00000FA04F42343024C8D1044F8253030BD3A
:10060000083801400CB50020019000903448006883
:1006100040F480303249086000BF3148006800F47F
:10062000003000900198401C0190009818B9019882
:10063000B0F5A04FF1D12A48006800F4003010B1A5
:100640000120009001E0002000900098012846D190
:1006500023484030006840F0805021494031086014
:100660002048006840F440401E4908601C4808309B
:1006700000681B49083108600846006840F40040E3
:1006800008600846006840F4A05008601648091F3A
:100690000860081F006840F08070091F086000BFF4
:1006A0000F48006800F000700028F9D040F2057093
:1006B0000E4908600A480830006820F00300084925
:1006C000083108600846006840F00200086000BF7A
:1006D00003480830006800F00C000828F8D10CBD71
:1006E000003802400070004008544007003C0240BF
:1006F00010B51548006840F47000134908601348AD
:10070000006840F001001149086000200F490831DD
:1007100008600E4800680E4908400C4908600D4802
:10072000091D0860081F006820F48020091F086068
:10073000002006490C310860FFF764FF4FF00060AD
:1007400001498039086010BD88ED00E000380240A2
:10075000FFFFF6FE1030002410B50121880700F0DD
:10076000F0F8002863D00121880700F0DBF830485A
:100770000068401C2E490860084600680A280BDD06
:100780002C480068002807DD2A480068401E2949D7
:1007900008600120264908602648006820B900202A
:1007A00025490860254908602448006801283ED191
:1007B0002148006830B31E480068012823D1204832
:1007C00000680C2806D00D280AD00E280ED00F285D
:1007D00018D111E04FF480511A48FFF753FE11E091
:1007E0004FF400511748FFF74DFE0BE04FF48041E6
:1007F0001448FFF747FE05E04FF400411148FFF7AA
:1008000041FE00BF13E04FF480510E48FFF738FE61
:100810004FF400510B48FFF733FE4FF48041094875
:10082000FFF72EFE4FF400410648FFF729FE10BDEA
:1008300008000020040000200C0000201000002010
:1008400000000020000C024010B501212F4800F0EC
:1008500078F8002858D001212C4800F063F82C4883
:100860000068002804DD2A480068401E2849086006
:1008700027480068002847D12648006801282ED163
:100880002548006858B925480068401C234908607D
:10089000084600680F2834DD0C20086031E01E484F
:1008A000006801282DD11D4800680C2806D00D28AD
:1008B00008D00E280AD00F2810D10BE005201849C7
:1008C00008600BE00A201649086007E00F20144971
:1008D000086003E014201249086000BF11E00D48D1
:1008E000006801280DDD0C480068012803D10020B4
:1008F0000949086005E00848006810B90120064968
:10090000086000200349086010BD0000000C004092
:10091000180000201400002010000020000000201B
:1009200004000020CA430282704721B1028842F0CD
:100930000102028004E002884FF6FE731A40028032
:10094000704730B50246002000230024158A05EACE
:100950000103958905EA010413B10CB1012000E0FF
:10096000002030BD1AB183890B43838102E0838963
:100970008B4383817047000000220288184B984205
:100980000ED0184B98420BD0B0F1804F08D0164BC8
:10099000984205D0154B984202D0154B984204D18D
:1009A0004FF68F731A404B881A43124B984207D068
:1009B000114B984204D04FF6FF431A400B891A435B
:1009C00002804B68C3620B880385054B984202D0B6
:1009D000044B984201D18B7A0386012383827047AE
:1009E00000000140000401400004004000080040F5
:1009F000000C0040001000400014004008B51C200E
:100A00008DF8000000208DF8010001208DF8020013
:100A10008DF803006846FFF769FD08BD08B5322070
:100A20008DF8000001208DF801008DF802008DF88E
:100A300003006846FFF75AFD08BD00001CB5012100
:100A40000820FFF78FFD4FF47040009001208DF8D3
:100A5000040000208DF806008DF8070003208DF8B3
:100A6000050069460148FFF7C3FC1CBD000C0240AD
:100A70000EB501210846FFF785FD01210820FFF78B
:100A800081FD5320ADF80000124801900020ADF820
:100A90000200ADF808008DF80A0069464FF080406A
:100AA000FFF76AFF01218807FFF73FFF0122114688
:100AB0009007FFF757FF69460748FFF75DFF0121E1
:100AC0000548FFF732FF012211460348FFF74AFFAE
:100AD0000EBD0000A0860100000C0040FFF7AEFF35
:100AE000FFF7C6FFFFF78AFFFFF798FFFFF7CCFC81
:100AF000FFF7E4FCFFF76CFC0C20374908604FF46B
:100B000080513648FFF7BEFC65E035480068B8BB49
:100B1000314800680C2806D00D280FD00E2818D0B8
:100B20000F282CD120E04FF400412C48FFF7A8FCFF
:100B30004FF480512948FFF7A5FC20E04FF4805185
:100B40002648FFF79DFC4FF400512448FFF79AFC1C
:100B500015E04FF400512148FFF792FC4FF480411B
:100B60001E48FFF78FFC0AE04FF480411B48FFF757
:100B700087FC4FF400411948FFF784FC00BF2AE0CE
:100B8000FFE717480068012825D11648006810BB08
:100B90004FF0FF30144908600F4800680C2806D059
:100BA0000D2808D00E280AD00F2810D10BE0052000
:100BB0000E4908600BE00A200C49086007E00F208E
:100BC0000A49086003E014200849086000BF00BF1C
:100BD00001200449086098E700000020000C024052
:100BE000100000200C00002008000020040000205D
:100BF0004FF04070E1EE100A704700001C0C000836
:100C0000000000201C000000C4010008380C00088F
:100C10001C00002064060000E00100080C00000039
:100C200000000000010000000000000000000000C3
:080C30000000000000000000BC
:0400000508000229C4
:00000001FF
